{
  "contractName": "Bitcoinv1",
  "abi": [
    {
      "constant": true,
      "inputs": [],
      "name": "ceilingSupply",
      "outputs": [
        {
          "name": "",
          "type": "uint256"
        }
      ],
      "payable": false,
      "stateMutability": "view",
      "type": "function"
    },
    {
      "constant": true,
      "inputs": [],
      "name": "decimals",
      "outputs": [
        {
          "name": "",
          "type": "uint8"
        }
      ],
      "payable": false,
      "stateMutability": "view",
      "type": "function"
    },
    {
      "constant": true,
      "inputs": [],
      "name": "mSymbol",
      "outputs": [
        {
          "name": "",
          "type": "string"
        }
      ],
      "payable": false,
      "stateMutability": "view",
      "type": "function"
    },
    {
      "constant": true,
      "inputs": [],
      "name": "mName",
      "outputs": [
        {
          "name": "",
          "type": "string"
        }
      ],
      "payable": false,
      "stateMutability": "view",
      "type": "function"
    },
    {
      "constant": true,
      "inputs": [],
      "name": "_ownerAddress",
      "outputs": [
        {
          "name": "",
          "type": "address"
        }
      ],
      "payable": false,
      "stateMutability": "view",
      "type": "function"
    },
    {
      "inputs": [
        {
          "name": "_defaultOperators",
          "type": "address[]"
        }
      ],
      "payable": false,
      "stateMutability": "nonpayable",
      "type": "constructor"
    },
    {
      "anonymous": false,
      "inputs": [
        {
          "indexed": true,
          "name": "from",
          "type": "address"
        },
        {
          "indexed": true,
          "name": "to",
          "type": "address"
        },
        {
          "indexed": false,
          "name": "value",
          "type": "uint256"
        }
      ],
      "name": "Transfer",
      "type": "event"
    },
    {
      "anonymous": false,
      "inputs": [
        {
          "indexed": true,
          "name": "owner",
          "type": "address"
        },
        {
          "indexed": true,
          "name": "spender",
          "type": "address"
        },
        {
          "indexed": false,
          "name": "value",
          "type": "uint256"
        }
      ],
      "name": "Approval",
      "type": "event"
    },
    {
      "anonymous": false,
      "inputs": [
        {
          "indexed": true,
          "name": "operator",
          "type": "address"
        },
        {
          "indexed": true,
          "name": "from",
          "type": "address"
        },
        {
          "indexed": true,
          "name": "to",
          "type": "address"
        },
        {
          "indexed": false,
          "name": "amount",
          "type": "uint256"
        },
        {
          "indexed": false,
          "name": "data",
          "type": "bytes"
        },
        {
          "indexed": false,
          "name": "operatorData",
          "type": "bytes"
        }
      ],
      "name": "Sent",
      "type": "event"
    },
    {
      "anonymous": false,
      "inputs": [
        {
          "indexed": true,
          "name": "operator",
          "type": "address"
        },
        {
          "indexed": true,
          "name": "to",
          "type": "address"
        },
        {
          "indexed": false,
          "name": "amount",
          "type": "uint256"
        },
        {
          "indexed": false,
          "name": "data",
          "type": "bytes"
        },
        {
          "indexed": false,
          "name": "operatorData",
          "type": "bytes"
        }
      ],
      "name": "Minted",
      "type": "event"
    },
    {
      "anonymous": false,
      "inputs": [
        {
          "indexed": true,
          "name": "operator",
          "type": "address"
        },
        {
          "indexed": true,
          "name": "from",
          "type": "address"
        },
        {
          "indexed": false,
          "name": "amount",
          "type": "uint256"
        },
        {
          "indexed": false,
          "name": "data",
          "type": "bytes"
        },
        {
          "indexed": false,
          "name": "operatorData",
          "type": "bytes"
        }
      ],
      "name": "Burned",
      "type": "event"
    },
    {
      "anonymous": false,
      "inputs": [
        {
          "indexed": true,
          "name": "operator",
          "type": "address"
        },
        {
          "indexed": true,
          "name": "tokenHolder",
          "type": "address"
        }
      ],
      "name": "AuthorizedOperator",
      "type": "event"
    },
    {
      "anonymous": false,
      "inputs": [
        {
          "indexed": true,
          "name": "operator",
          "type": "address"
        },
        {
          "indexed": true,
          "name": "tokenHolder",
          "type": "address"
        }
      ],
      "name": "RevokedOperator",
      "type": "event"
    },
    {
      "constant": true,
      "inputs": [],
      "name": "name",
      "outputs": [
        {
          "name": "",
          "type": "string"
        }
      ],
      "payable": false,
      "stateMutability": "view",
      "type": "function"
    },
    {
      "constant": true,
      "inputs": [],
      "name": "symbol",
      "outputs": [
        {
          "name": "",
          "type": "string"
        }
      ],
      "payable": false,
      "stateMutability": "view",
      "type": "function"
    },
    {
      "constant": true,
      "inputs": [],
      "name": "granularity",
      "outputs": [
        {
          "name": "",
          "type": "uint256"
        }
      ],
      "payable": false,
      "stateMutability": "view",
      "type": "function"
    },
    {
      "constant": true,
      "inputs": [],
      "name": "totalSupply",
      "outputs": [
        {
          "name": "",
          "type": "uint256"
        }
      ],
      "payable": false,
      "stateMutability": "view",
      "type": "function"
    },
    {
      "constant": true,
      "inputs": [
        {
          "name": "_tokenHolder",
          "type": "address"
        }
      ],
      "name": "balanceOf",
      "outputs": [
        {
          "name": "",
          "type": "uint256"
        }
      ],
      "payable": false,
      "stateMutability": "view",
      "type": "function"
    },
    {
      "constant": true,
      "inputs": [],
      "name": "defaultOperators",
      "outputs": [
        {
          "name": "",
          "type": "address[]"
        }
      ],
      "payable": false,
      "stateMutability": "view",
      "type": "function"
    },
    {
      "constant": false,
      "inputs": [
        {
          "name": "_to",
          "type": "address"
        },
        {
          "name": "_amount",
          "type": "uint256"
        },
        {
          "name": "_data",
          "type": "bytes"
        }
      ],
      "name": "send",
      "outputs": [],
      "payable": false,
      "stateMutability": "nonpayable",
      "type": "function"
    },
    {
      "constant": false,
      "inputs": [
        {
          "name": "recipient",
          "type": "address"
        },
        {
          "name": "amount",
          "type": "uint256"
        }
      ],
      "name": "transfer",
      "outputs": [
        {
          "name": "",
          "type": "bool"
        }
      ],
      "payable": false,
      "stateMutability": "nonpayable",
      "type": "function"
    },
    {
      "constant": false,
      "inputs": [
        {
          "name": "_operator",
          "type": "address"
        }
      ],
      "name": "authorizeOperator",
      "outputs": [],
      "payable": false,
      "stateMutability": "nonpayable",
      "type": "function"
    },
    {
      "constant": false,
      "inputs": [
        {
          "name": "_operator",
          "type": "address"
        }
      ],
      "name": "revokeOperator",
      "outputs": [],
      "payable": false,
      "stateMutability": "nonpayable",
      "type": "function"
    },
    {
      "constant": true,
      "inputs": [
        {
          "name": "_operator",
          "type": "address"
        },
        {
          "name": "_tokenHolder",
          "type": "address"
        }
      ],
      "name": "isOperatorFor",
      "outputs": [
        {
          "name": "",
          "type": "bool"
        }
      ],
      "payable": false,
      "stateMutability": "view",
      "type": "function"
    },
    {
      "constant": false,
      "inputs": [
        {
          "name": "_from",
          "type": "address"
        },
        {
          "name": "_to",
          "type": "address"
        },
        {
          "name": "_amount",
          "type": "uint256"
        },
        {
          "name": "_data",
          "type": "bytes"
        },
        {
          "name": "_operatorData",
          "type": "bytes"
        }
      ],
      "name": "operatorSend",
      "outputs": [],
      "payable": false,
      "stateMutability": "nonpayable",
      "type": "function"
    },
    {
      "constant": true,
      "inputs": [
        {
          "name": "holder",
          "type": "address"
        },
        {
          "name": "spender",
          "type": "address"
        }
      ],
      "name": "allowance",
      "outputs": [
        {
          "name": "",
          "type": "uint256"
        }
      ],
      "payable": false,
      "stateMutability": "view",
      "type": "function"
    },
    {
      "constant": false,
      "inputs": [
        {
          "name": "holder",
          "type": "address"
        },
        {
          "name": "recipient",
          "type": "address"
        },
        {
          "name": "amount",
          "type": "uint256"
        }
      ],
      "name": "transferFrom",
      "outputs": [
        {
          "name": "",
          "type": "bool"
        }
      ],
      "payable": false,
      "stateMutability": "nonpayable",
      "type": "function"
    },
    {
      "constant": false,
      "inputs": [
        {
          "name": "_amount",
          "type": "uint256"
        },
        {
          "name": "_data",
          "type": "bytes"
        }
      ],
      "name": "burn",
      "outputs": [],
      "payable": false,
      "stateMutability": "nonpayable",
      "type": "function"
    },
    {
      "constant": false,
      "inputs": [
        {
          "name": "_tokenHolder",
          "type": "address"
        },
        {
          "name": "_amount",
          "type": "uint256"
        },
        {
          "name": "_data",
          "type": "bytes"
        },
        {
          "name": "_operatorData",
          "type": "bytes"
        }
      ],
      "name": "operatorBurn",
      "outputs": [],
      "payable": false,
      "stateMutability": "nonpayable",
      "type": "function"
    },
    {
      "constant": false,
      "inputs": [
        {
          "name": "spender",
          "type": "address"
        },
        {
          "name": "value",
          "type": "uint256"
        }
      ],
      "name": "approve",
      "outputs": [
        {
          "name": "",
          "type": "bool"
        }
      ],
      "payable": false,
      "stateMutability": "nonpayable",
      "type": "function"
    },
    {
      "constant": false,
      "inputs": [
        {
          "name": "_newOwner",
          "type": "address"
        }
      ],
      "name": "transferOwnership",
      "outputs": [
        {
          "name": "success",
          "type": "bool"
        }
      ],
      "payable": false,
      "stateMutability": "nonpayable",
      "type": "function"
    },
    {
      "constant": false,
      "inputs": [
        {
          "name": "operator",
          "type": "address"
        },
        {
          "name": "account",
          "type": "address"
        },
        {
          "name": "amount",
          "type": "uint256"
        },
        {
          "name": "userData",
          "type": "bytes"
        },
        {
          "name": "operatorData",
          "type": "bytes"
        }
      ],
      "name": "mintToken",
      "outputs": [],
      "payable": false,
      "stateMutability": "nonpayable",
      "type": "function"
    },
    {
      "constant": true,
      "inputs": [],
      "name": "mintableToken",
      "outputs": [
        {
          "name": "remaining",
          "type": "uint256"
        }
      ],
      "payable": false,
      "stateMutability": "view",
      "type": "function"
    }
  ],
  "bytecode": "0x608060405273c2c18315cda0d04f4e7724215dd22dc34e8515656000806101000a81548173ffffffffffffffffffffffffffffffffffffffff021916908373ffffffffffffffffffffffffffffffffffffffff1602179055503480156200006557600080fd5b5060405162003e1638038062003e16833981810160405260208110156200008b57600080fd5b810190808051640100000000811115620000a457600080fd5b82810190506020810184811115620000bb57600080fd5b8151856020820283011164010000000082111715620000d957600080fd5b50509291905050506040518060400160405280600881526020017f424954434f494e31000000000000000000000000000000000000000000000000815250600190805190602001906200012e9291906200054c565b506040518060400160405280600581526020017f4542544331000000000000000000000000000000000000000000000000000000815250600290805190602001906200017c9291906200054c565b5063773594006004819055506404a817c80060068190555033600560006101000a81548173ffffffffffffffffffffffffffffffffffffffff021916908373ffffffffffffffffffffffffffffffffffffffff160217905550600454600760003373ffffffffffffffffffffffffffffffffffffffff1673ffffffffffffffffffffffffffffffffffffffff16815260200190815260200160002081905550600160038190555080600890805190602001906200023b929190620005d3565b5060008090505b600880549050811015620002ee57600160096000600884815481106200026457fe5b9060005260206000200160009054906101000a900473ffffffffffffffffffffffffffffffffffffffff1673ffffffffffffffffffffffffffffffffffffffff1673ffffffffffffffffffffffffffffffffffffffff16815260200190815260200160002060006101000a81548160ff021916908315150217905550808060010191505062000242565b506000809054906101000a900473ffffffffffffffffffffffffffffffffffffffff1673ffffffffffffffffffffffffffffffffffffffff166329965a1d3060405180807f455243373737546f6b656e000000000000000000000000000000000000000000815250600b0190506040518091039020306040518463ffffffff1660e01b8152600401808473ffffffffffffffffffffffffffffffffffffffff1673ffffffffffffffffffffffffffffffffffffffff1681526020018381526020018273ffffffffffffffffffffffffffffffffffffffff1673ffffffffffffffffffffffffffffffffffffffff1681526020019350505050600060405180830381600087803b1580156200040157600080fd5b505af115801562000416573d6000803e3d6000fd5b505050506000809054906101000a900473ffffffffffffffffffffffffffffffffffffffff1673ffffffffffffffffffffffffffffffffffffffff166329965a1d3060405180807f4552433230546f6b656e00000000000000000000000000000000000000000000815250600a0190506040518091039020306040518463ffffffff1660e01b8152600401808473ffffffffffffffffffffffffffffffffffffffff1673ffffffffffffffffffffffffffffffffffffffff1681526020018381526020018273ffffffffffffffffffffffffffffffffffffffff1673ffffffffffffffffffffffffffffffffffffffff1681526020019350505050600060405180830381600087803b1580156200052c57600080fd5b505af115801562000541573d6000803e3d6000fd5b5050505050620006d0565b828054600181600116156101000203166002900490600052602060002090601f016020900481019282601f106200058f57805160ff1916838001178555620005c0565b82800160010185558215620005c0579182015b82811115620005bf578251825591602001919060010190620005a2565b5b509050620005cf919062000662565b5090565b8280548282559060005260206000209081019282156200064f579160200282015b828111156200064e5782518260006101000a81548173ffffffffffffffffffffffffffffffffffffffff021916908373ffffffffffffffffffffffffffffffffffffffff16021790555091602001919060010190620005f4565b5b5090506200065e91906200068a565b5090565b6200068791905b808211156200068357600081600090555060010162000669565b5090565b90565b620006cd91905b80821115620006c957600081816101000a81549073ffffffffffffffffffffffffffffffffffffffff02191690555060010162000691565b5090565b90565b61373680620006e06000396000f3fe608060405234801561001057600080fd5b50600436106101735760003560e01c80639069195b116100de578063a9059cbb11610097578063f2fde38b11610071578063f2fde38b14610a7e578063fad8b32a14610ada578063fc673c4f14610b1e578063fe9d930314610c1657610173565b8063a9059cbb14610924578063d95b63711461098a578063dd62ed3e14610a0657610173565b80639069195b146106cf578063959b8c3f1461075257806395d38ea81461079657806395d89b41146107b45780639bd9bbc614610837578063a786c18b146108da57610173565b806323b872dd1161013057806323b872dd14610414578063313ce5671461049a578063556f0dc7146104be57806362ad1b83146104dc57806370a08231146105f4578063803ab8d41461064c57610173565b806306e485381461017857806306fdde03146101d7578063095ea7b31461025a5780630d14f594146102c057806318160ddd146103d8578063213bf45b146103f6575b600080fd5b610180610c99565b6040518080602001828103825283818151815260200191508051906020019060200280838360005b838110156101c35780820151818401526020810190506101a8565b505050509050019250505060405180910390f35b6101df610d27565b6040518080602001828103825283818151815260200191508051906020019080838360005b8381101561021f578082015181840152602081019050610204565b50505050905090810190601f16801561024c5780820380516001836020036101000a031916815260200191505b509250505060405180910390f35b6102a66004803603604081101561027057600080fd5b81019080803573ffffffffffffffffffffffffffffffffffffffff16906020019092919080359060200190929190505050610dc9565b604051808215151515815260200191505060405180910390f35b6103d6600480360360a08110156102d657600080fd5b81019080803573ffffffffffffffffffffffffffffffffffffffff169060200190929190803573ffffffffffffffffffffffffffffffffffffffff169060200190929190803590602001909291908035906020019064010000000081111561033d57600080fd5b82018360208201111561034f57600080fd5b8035906020019184600183028401116401000000008311171561037157600080fd5b90919293919293908035906020019064010000000081111561039257600080fd5b8201836020820111156103a457600080fd5b803590602001918460018302840111640100000000831117156103c657600080fd5b9091929391929390505050610de5565b005b6103e061122d565b6040518082815260200191505060405180910390f35b6103fe611237565b6040518082815260200191505060405180910390f35b6104806004803603606081101561042a57600080fd5b81019080803573ffffffffffffffffffffffffffffffffffffffff169060200190929190803573ffffffffffffffffffffffffffffffffffffffff1690602001909291908035906020019092919050505061123d565b604051808215151515815260200191505060405180910390f35b6104a261147a565b604051808260ff1660ff16815260200191505060405180910390f35b6104c661147f565b6040518082815260200191505060405180910390f35b6105f2600480360360a08110156104f257600080fd5b81019080803573ffffffffffffffffffffffffffffffffffffffff169060200190929190803573ffffffffffffffffffffffffffffffffffffffff169060200190929190803590602001909291908035906020019064010000000081111561055957600080fd5b82018360208201111561056b57600080fd5b8035906020019184600183028401116401000000008311171561058d57600080fd5b9091929391929390803590602001906401000000008111156105ae57600080fd5b8201836020820111156105c057600080fd5b803590602001918460018302840111640100000000831117156105e257600080fd5b9091929391929390505050611489565b005b6106366004803603602081101561060a57600080fd5b81019080803573ffffffffffffffffffffffffffffffffffffffff1690602001909291905050506115a6565b6040518082815260200191505060405180910390f35b6106546115ef565b6040518080602001828103825283818151815260200191508051906020019080838360005b83811015610694578082015181840152602081019050610679565b50505050905090810190601f1680156106c15780820380516001836020036101000a031916815260200191505b509250505060405180910390f35b6106d761168d565b6040518080602001828103825283818151815260200191508051906020019080838360005b838110156107175780820151818401526020810190506106fc565b50505050905090810190601f1680156107445780820380516001836020036101000a031916815260200191505b509250505060405180910390f35b6107946004803603602081101561076857600080fd5b81019080803573ffffffffffffffffffffffffffffffffffffffff16906020019092919050505061172b565b005b61079e61198f565b6040518082815260200191505060405180910390f35b6107bc6119ad565b6040518080602001828103825283818151815260200191508051906020019080838360005b838110156107fc5780820151818401526020810190506107e1565b50505050905090810190601f1680156108295780820380516001836020036101000a031916815260200191505b509250505060405180910390f35b6108d86004803603606081101561084d57600080fd5b81019080803573ffffffffffffffffffffffffffffffffffffffff169060200190929190803590602001909291908035906020019064010000000081111561089457600080fd5b8201836020820111156108a657600080fd5b803590602001918460018302840111640100000000831117156108c857600080fd5b9091929391929390505050611a4f565b005b6108e2611ab8565b604051808273ffffffffffffffffffffffffffffffffffffffff1673ffffffffffffffffffffffffffffffffffffffff16815260200191505060405180910390f35b6109706004803603604081101561093a57600080fd5b81019080803573ffffffffffffffffffffffffffffffffffffffff16906020019092919080359060200190929190505050611ade565b604051808215151515815260200191505060405180910390f35b6109ec600480360360408110156109a057600080fd5b81019080803573ffffffffffffffffffffffffffffffffffffffff169060200190929190803573ffffffffffffffffffffffffffffffffffffffff169060200190929190505050611bf7565b604051808215151515815260200191505060405180910390f35b610a6860048036036040811015610a1c57600080fd5b81019080803573ffffffffffffffffffffffffffffffffffffffff169060200190929190803573ffffffffffffffffffffffffffffffffffffffff169060200190929190505050611da8565b6040518082815260200191505060405180910390f35b610ac060048036036020811015610a9457600080fd5b81019080803573ffffffffffffffffffffffffffffffffffffffff169060200190929190505050611e2f565b604051808215151515815260200191505060405180910390f35b610b1c60048036036020811015610af057600080fd5b81019080803573ffffffffffffffffffffffffffffffffffffffff169060200190929190505050611f3e565b005b610c1460048036036080811015610b3457600080fd5b81019080803573ffffffffffffffffffffffffffffffffffffffff1690602001909291908035906020019092919080359060200190640100000000811115610b7b57600080fd5b820183602082011115610b8d57600080fd5b80359060200191846001830284011164010000000083111715610baf57600080fd5b909192939192939080359060200190640100000000811115610bd057600080fd5b820183602082011115610be257600080fd5b80359060200191846001830284011164010000000083111715610c0457600080fd5b90919293919293905050506121a2565b005b610c9760048036036040811015610c2c57600080fd5b810190808035906020019092919080359060200190640100000000811115610c5357600080fd5b820183602082011115610c6557600080fd5b80359060200191846001830284011164010000000083111715610c8757600080fd5b90919293919293905050506122bb565b005b60606008805480602002602001604051908101604052809291908181526020018280548015610d1d57602002820191906000526020600020905b8160009054906101000a900473ffffffffffffffffffffffffffffffffffffffff1673ffffffffffffffffffffffffffffffffffffffff1681526020019060010190808311610cd3575b5050505050905090565b606060018054600181600116156101000203166002900480601f016020809104026020016040519081016040528092919081815260200182805460018160011615610100020316600290048015610dbf5780601f10610d9457610100808354040283529160200191610dbf565b820191906000526020600020905b815481529060010190602001808311610da257829003601f168201915b5050505050905090565b600080339050610dda818585612320565b600191505092915050565b600560009054906101000a900473ffffffffffffffffffffffffffffffffffffffff1673ffffffffffffffffffffffffffffffffffffffff163373ffffffffffffffffffffffffffffffffffffffff1614610ea8576040517f08c379a00000000000000000000000000000000000000000000000000000000081526004018080602001828103825260158152602001807f53656e646572206e6f7420617574686f72697a6564000000000000000000000081525060200191505060405180910390fd5b6006546004541115610f05576040517f08c379a000000000000000000000000000000000000000000000000000000000815260040180806020018281038252602e8152602001806135ce602e913960400191505060405180910390fd5b600073ffffffffffffffffffffffffffffffffffffffff168673ffffffffffffffffffffffffffffffffffffffff161415610fa8576040517f08c379a00000000000000000000000000000000000000000000000000000000081526004018080602001828103825260208152602001807f4552433737373a206d696e7420746f20746865207a65726f206164647265737381525060200191505060405180910390fd5b610fbd8560045461249190919063ffffffff16565b60048190555061101585600760008973ffffffffffffffffffffffffffffffffffffffff1673ffffffffffffffffffffffffffffffffffffffff1681526020019081526020016000205461249190919063ffffffff16565b600760008873ffffffffffffffffffffffffffffffffffffffff1673ffffffffffffffffffffffffffffffffffffffff168152602001908152602001600020819055506110f1876000888888888080601f016020809104026020016040519081016040528093929190818152602001838380828437600081840152601f19601f8201169050808301925050505050505087878080601f016020809104026020016040519081016040528093929190818152602001838380828437600081840152601f19601f820116905080830192505050505050506001612519565b8573ffffffffffffffffffffffffffffffffffffffff168773ffffffffffffffffffffffffffffffffffffffff167f2fe5be0146f74c5bce36c0b80911af6c7d86ff27e89d5cfa61fc681327954e5d87878787876040518086815260200180602001806020018381038352878782818152602001925080828437600081840152601f19601f8201169050808301925050508381038252858582818152602001925080828437600081840152601f19601f82011690508083019250505097505050505050505060405180910390a38573ffffffffffffffffffffffffffffffffffffffff16600073ffffffffffffffffffffffffffffffffffffffff167fddf252ad1be2c89b69c2b068fc378daa952ba7f163c4a11628f55a4df523b3ef876040518082815260200191505060405180910390a350505050505050565b6000600454905090565b60065481565b60008073ffffffffffffffffffffffffffffffffffffffff168373ffffffffffffffffffffffffffffffffffffffff1614156112c4576040517f08c379a00000000000000000000000000000000000000000000000000000000081526004018080602001828103825260248152602001806136956024913960400191505060405180910390fd5b600073ffffffffffffffffffffffffffffffffffffffff168473ffffffffffffffffffffffffffffffffffffffff16141561134a576040517f08c379a00000000000000000000000000000000000000000000000000000000081526004018080602001828103825260268152602001806136b96026913960400191505060405180910390fd5b600033905061137b8186868660405180602001604052806000815250604051806020016040528060008152506128c1565b6113a7818686866040518060200160405280600081525060405180602001604052806000815250612be8565b611440858261143b86600c60008b73ffffffffffffffffffffffffffffffffffffffff1673ffffffffffffffffffffffffffffffffffffffff16815260200190815260200160002060008773ffffffffffffffffffffffffffffffffffffffff1673ffffffffffffffffffffffffffffffffffffffff16815260200190815260200160002054612f8a90919063ffffffff16565b612320565b61146e8186868660405180602001604052806000815250604051806020016040528060008152506000612519565b60019150509392505050565b601281565b6000600354905090565b6114933388611bf7565b611505576040517f08c379a000000000000000000000000000000000000000000000000000000000815260040180806020018281038252600f8152602001807f4e6f7420616e206f70657261746f72000000000000000000000000000000000081525060200191505060405180910390fd5b61159d3388888888888080601f016020809104026020016040519081016040528093929190818152602001838380828437600081840152601f19601f8201169050808301925050505050505087878080601f016020809104026020016040519081016040528093929190818152602001838380828437600081840152601f19601f820116905080830192505050505050506001613013565b50505050505050565b6000600760008373ffffffffffffffffffffffffffffffffffffffff1673ffffffffffffffffffffffffffffffffffffffff168152602001908152602001600020549050919050565b60028054600181600116156101000203166002900480601f0160208091040260200160405190810160405280929190818152602001828054600181600116156101000203166002900480156116855780601f1061165a57610100808354040283529160200191611685565b820191906000526020600020905b81548152906001019060200180831161166857829003601f168201915b505050505081565b60018054600181600116156101000203166002900480601f0160208091040260200160405190810160405280929190818152602001828054600181600116156101000203166002900480156117235780601f106116f857610100808354040283529160200191611723565b820191906000526020600020905b81548152906001019060200180831161170657829003601f168201915b505050505081565b3373ffffffffffffffffffffffffffffffffffffffff168173ffffffffffffffffffffffffffffffffffffffff1614156117b0576040517f08c379a00000000000000000000000000000000000000000000000000000000081526004018080602001828103825260288152602001806135a66028913960400191505060405180910390fd5b600960008273ffffffffffffffffffffffffffffffffffffffff1673ffffffffffffffffffffffffffffffffffffffff16815260200190815260200160002060009054906101000a900460ff161561189c576000600a60008373ffffffffffffffffffffffffffffffffffffffff1673ffffffffffffffffffffffffffffffffffffffff16815260200190815260200160002060003373ffffffffffffffffffffffffffffffffffffffff1673ffffffffffffffffffffffffffffffffffffffff16815260200190815260200160002060006101000a81548160ff021916908315150217905550611932565b6001600b60008373ffffffffffffffffffffffffffffffffffffffff1673ffffffffffffffffffffffffffffffffffffffff16815260200190815260200160002060003373ffffffffffffffffffffffffffffffffffffffff1673ffffffffffffffffffffffffffffffffffffffff16815260200190815260200160002060006101000a81548160ff0219169083151502179055505b3373ffffffffffffffffffffffffffffffffffffffff168173ffffffffffffffffffffffffffffffffffffffff167ff4caeb2d6ca8932a215a353d0703c326ec2d81fc68170f320eb2ab49e9df61f960405160405180910390a350565b60006119a8600454600654612f8a90919063ffffffff16565b905090565b606060028054600181600116156101000203166002900480601f016020809104026020016040519081016040528092919081815260200182805460018160011615610100020316600290048015611a455780601f10611a1a57610100808354040283529160200191611a45565b820191906000526020600020905b815481529060010190602001808311611a2857829003601f168201915b5050505050905090565b611ab23333868686868080601f016020809104026020016040519081016040528093929190818152602001838380828437600081840152601f19601f82011690508083019250505050505050604051806020016040528060008152506001613013565b50505050565b600560009054906101000a900473ffffffffffffffffffffffffffffffffffffffff1681565b60008073ffffffffffffffffffffffffffffffffffffffff168373ffffffffffffffffffffffffffffffffffffffff161415611b65576040517f08c379a00000000000000000000000000000000000000000000000000000000081526004018080602001828103825260248152602001806136956024913960400191505060405180910390fd5b6000339050611b968182868660405180602001604052806000815250604051806020016040528060008152506128c1565b611bc2818286866040518060200160405280600081525060405180602001604052806000815250612be8565b611bf08182868660405180602001604052806000815250604051806020016040528060008152506000612519565b5092915050565b60008173ffffffffffffffffffffffffffffffffffffffff168373ffffffffffffffffffffffffffffffffffffffff161480611cb95750600b60008473ffffffffffffffffffffffffffffffffffffffff1673ffffffffffffffffffffffffffffffffffffffff16815260200190815260200160002060008373ffffffffffffffffffffffffffffffffffffffff1673ffffffffffffffffffffffffffffffffffffffff16815260200190815260200160002060009054906101000a900460ff165b80611da05750600960008473ffffffffffffffffffffffffffffffffffffffff1673ffffffffffffffffffffffffffffffffffffffff16815260200190815260200160002060009054906101000a900460ff168015611d9f5750600a60008473ffffffffffffffffffffffffffffffffffffffff1673ffffffffffffffffffffffffffffffffffffffff16815260200190815260200160002060008373ffffffffffffffffffffffffffffffffffffffff1673ffffffffffffffffffffffffffffffffffffffff16815260200190815260200160002060009054906101000a900460ff16155b5b905092915050565b6000600c60008473ffffffffffffffffffffffffffffffffffffffff1673ffffffffffffffffffffffffffffffffffffffff16815260200190815260200160002060008373ffffffffffffffffffffffffffffffffffffffff1673ffffffffffffffffffffffffffffffffffffffff16815260200190815260200160002054905092915050565b6000600560009054906101000a900473ffffffffffffffffffffffffffffffffffffffff1673ffffffffffffffffffffffffffffffffffffffff163373ffffffffffffffffffffffffffffffffffffffff1614611ef4576040517f08c379a00000000000000000000000000000000000000000000000000000000081526004018080602001828103825260158152602001807f53656e646572206e6f7420617574686f72697a6564000000000000000000000081525060200191505060405180910390fd5b81600560006101000a81548173ffffffffffffffffffffffffffffffffffffffff021916908373ffffffffffffffffffffffffffffffffffffffff16021790555060019050919050565b3373ffffffffffffffffffffffffffffffffffffffff168173ffffffffffffffffffffffffffffffffffffffff161415611fc3576040517f08c379a00000000000000000000000000000000000000000000000000000000081526004018080602001828103825260258152602001806135fc6025913960400191505060405180910390fd5b600960008273ffffffffffffffffffffffffffffffffffffffff1673ffffffffffffffffffffffffffffffffffffffff16815260200190815260200160002060009054906101000a900460ff16156120af576001600a60008373ffffffffffffffffffffffffffffffffffffffff1673ffffffffffffffffffffffffffffffffffffffff16815260200190815260200160002060003373ffffffffffffffffffffffffffffffffffffffff1673ffffffffffffffffffffffffffffffffffffffff16815260200190815260200160002060006101000a81548160ff021916908315150217905550612145565b6000600b60008373ffffffffffffffffffffffffffffffffffffffff1673ffffffffffffffffffffffffffffffffffffffff16815260200190815260200160002060003373ffffffffffffffffffffffffffffffffffffffff1673ffffffffffffffffffffffffffffffffffffffff16815260200190815260200160002060006101000a81548160ff0219169083151502179055505b3373ffffffffffffffffffffffffffffffffffffffff168173ffffffffffffffffffffffffffffffffffffffff167f50546e66e5f44d728365dc3908c63bc5cfeeab470722c1677e3073a6ac294aa160405160405180910390a350565b6121ac3387611bf7565b61221e576040517f08c379a000000000000000000000000000000000000000000000000000000000815260040180806020018281038252600f8152602001807f4e6f7420616e206f70657261746f72000000000000000000000000000000000081525060200191505060405180910390fd5b6122b333878787878080601f016020809104026020016040519081016040528093929190818152602001838380828437600081840152601f19601f8201169050808301925050505050505086868080601f016020809104026020016040519081016040528093929190818152602001838380828437600081840152601f19601f82011690508083019250505050505050613196565b505050505050565b61231b33338585858080601f016020809104026020016040519081016040528093929190818152602001838380828437600081840152601f19601f8201169050808301925050505050505060405180602001604052806000815250613196565b505050565b600073ffffffffffffffffffffffffffffffffffffffff168273ffffffffffffffffffffffffffffffffffffffff1614156123a6576040517f08c379a00000000000000000000000000000000000000000000000000000000081526004018080602001828103825260238152602001806136df6023913960400191505060405180910390fd5b80600c60008573ffffffffffffffffffffffffffffffffffffffff1673ffffffffffffffffffffffffffffffffffffffff16815260200190815260200160002060008473ffffffffffffffffffffffffffffffffffffffff1673ffffffffffffffffffffffffffffffffffffffff168152602001908152602001600020819055508173ffffffffffffffffffffffffffffffffffffffff168373ffffffffffffffffffffffffffffffffffffffff167f8c5be1e5ebec7d5bd14f71427d1e84f3dd0314c0f7b2291e5b200ac8c7c3b925836040518082815260200191505060405180910390a3505050565b60008082840190508381101561250f576040517f08c379a000000000000000000000000000000000000000000000000000000000815260040180806020018281038252601b8152602001807f536166654d6174683a206164646974696f6e206f766572666c6f77000000000081525060200191505060405180910390fd5b8091505092915050565b60008060009054906101000a900473ffffffffffffffffffffffffffffffffffffffff1673ffffffffffffffffffffffffffffffffffffffff1663aabbb8ca877fb281fc8c12954d22544db45de3159a39272895b169a852b314f9cc762e44c53b60001b6040518363ffffffff1660e01b8152600401808373ffffffffffffffffffffffffffffffffffffffff1673ffffffffffffffffffffffffffffffffffffffff1681526020018281526020019250505060206040518083038186803b1580156125e457600080fd5b505afa1580156125f8573d6000803e3d6000fd5b505050506040513d602081101561260e57600080fd5b81019080805190602001909291905050509050600073ffffffffffffffffffffffffffffffffffffffff168173ffffffffffffffffffffffffffffffffffffffff161461283a578073ffffffffffffffffffffffffffffffffffffffff166223de298989898989896040518763ffffffff1660e01b8152600401808773ffffffffffffffffffffffffffffffffffffffff1673ffffffffffffffffffffffffffffffffffffffff1681526020018673ffffffffffffffffffffffffffffffffffffffff1673ffffffffffffffffffffffffffffffffffffffff1681526020018573ffffffffffffffffffffffffffffffffffffffff1673ffffffffffffffffffffffffffffffffffffffff1681526020018481526020018060200180602001838103835285818151815260200191508051906020019080838360005b8381101561276557808201518184015260208101905061274a565b50505050905090810190601f1680156127925780820380516001836020036101000a031916815260200191505b50838103825284818151815260200191508051906020019080838360005b838110156127cb5780820151818401526020810190506127b0565b50505050905090810190601f1680156127f85780820380516001836020036101000a031916815260200191505b5098505050505050505050600060405180830381600087803b15801561281d57600080fd5b505af1158015612831573d6000803e3d6000fd5b505050506128b7565b81156128b65761285f8673ffffffffffffffffffffffffffffffffffffffff1661352b565b156128b5576040517f08c379a000000000000000000000000000000000000000000000000000000000815260040180806020018281038252604d815260200180613648604d913960600191505060405180910390fd5b5b5b5050505050505050565b60008060009054906101000a900473ffffffffffffffffffffffffffffffffffffffff1673ffffffffffffffffffffffffffffffffffffffff1663aabbb8ca877f29ddb589b1fb5fc7cf394961c1adf5f8c6454761adf795e67fe149f658abe89560001b6040518363ffffffff1660e01b8152600401808373ffffffffffffffffffffffffffffffffffffffff1673ffffffffffffffffffffffffffffffffffffffff1681526020018281526020019250505060206040518083038186803b15801561298c57600080fd5b505afa1580156129a0573d6000803e3d6000fd5b505050506040513d60208110156129b657600080fd5b81019080805190602001909291905050509050600073ffffffffffffffffffffffffffffffffffffffff168173ffffffffffffffffffffffffffffffffffffffff1614612bdf578073ffffffffffffffffffffffffffffffffffffffff166375ab97828888888888886040518763ffffffff1660e01b8152600401808773ffffffffffffffffffffffffffffffffffffffff1673ffffffffffffffffffffffffffffffffffffffff1681526020018673ffffffffffffffffffffffffffffffffffffffff1673ffffffffffffffffffffffffffffffffffffffff1681526020018573ffffffffffffffffffffffffffffffffffffffff1673ffffffffffffffffffffffffffffffffffffffff1681526020018481526020018060200180602001838103835285818151815260200191508051906020019080838360005b83811015612b0e578082015181840152602081019050612af3565b50505050905090810190601f168015612b3b5780820380516001836020036101000a031916815260200191505b50838103825284818151815260200191508051906020019080838360005b83811015612b74578082015181840152602081019050612b59565b50505050905090810190601f168015612ba15780820380516001836020036101000a031916815260200191505b5098505050505050505050600060405180830381600087803b158015612bc657600080fd5b505af1158015612bda573d6000803e3d6000fd5b505050505b50505050505050565b82600760008773ffffffffffffffffffffffffffffffffffffffff1673ffffffffffffffffffffffffffffffffffffffff168152602001908152602001600020541015612c9d576040517f08c379a00000000000000000000000000000000000000000000000000000000081526004018080602001828103825260108152602001807f4e6f7420656e6f7567682066756e64730000000000000000000000000000000081525060200191505060405180910390fd5b612cef83600760008873ffffffffffffffffffffffffffffffffffffffff1673ffffffffffffffffffffffffffffffffffffffff16815260200190815260200160002054612f8a90919063ffffffff16565b600760008773ffffffffffffffffffffffffffffffffffffffff1673ffffffffffffffffffffffffffffffffffffffff16815260200190815260200160002081905550612d8483600760008773ffffffffffffffffffffffffffffffffffffffff1673ffffffffffffffffffffffffffffffffffffffff1681526020019081526020016000205461249190919063ffffffff16565b600760008673ffffffffffffffffffffffffffffffffffffffff1673ffffffffffffffffffffffffffffffffffffffff168152602001908152602001600020819055508373ffffffffffffffffffffffffffffffffffffffff168573ffffffffffffffffffffffffffffffffffffffff168773ffffffffffffffffffffffffffffffffffffffff167f06b541ddaa720db2b10a4d0cdac39b8d360425fc073085fac19bc82614677987868686604051808481526020018060200180602001838103835285818151815260200191508051906020019080838360005b83811015612e7a578082015181840152602081019050612e5f565b50505050905090810190601f168015612ea75780820380516001836020036101000a031916815260200191505b50838103825284818151815260200191508051906020019080838360005b83811015612ee0578082015181840152602081019050612ec5565b50505050905090810190601f168015612f0d5780820380516001836020036101000a031916815260200191505b509550505050505060405180910390a48373ffffffffffffffffffffffffffffffffffffffff168573ffffffffffffffffffffffffffffffffffffffff167fddf252ad1be2c89b69c2b068fc378daa952ba7f163c4a11628f55a4df523b3ef856040518082815260200191505060405180910390a3505050505050565b600082821115613002576040517f08c379a000000000000000000000000000000000000000000000000000000000815260040180806020018281038252601e8152602001807f536166654d6174683a207375627472616374696f6e206f766572666c6f77000081525060200191505060405180910390fd5b600082840390508091505092915050565b61301c8461353e565b600073ffffffffffffffffffffffffffffffffffffffff168673ffffffffffffffffffffffffffffffffffffffff1614156130bf576040517f08c379a00000000000000000000000000000000000000000000000000000000081526004018080602001828103825260158152602001807f4552433737373a2073656e642066726f6d20307830000000000000000000000081525060200191505060405180910390fd5b600073ffffffffffffffffffffffffffffffffffffffff168573ffffffffffffffffffffffffffffffffffffffff161415613162576040517f08c379a00000000000000000000000000000000000000000000000000000000081526004018080602001828103825260138152602001807f4552433737373a2073656e6420746f203078300000000000000000000000000081525060200191505060405180910390fd5b6131708787878787876128c1565b61317e878787878787612be8565b61318d87878787878787612519565b50505050505050565b600073ffffffffffffffffffffffffffffffffffffffff168473ffffffffffffffffffffffffffffffffffffffff161415613239576040517f08c379a00000000000000000000000000000000000000000000000000000000081526004018080602001828103825260158152602001807f4552433737373a206275726e2066726f6d20307830000000000000000000000081525060200191505060405180910390fd5b613248858560008686866128c1565b6132518361353e565b8261325b856115a6565b10156132cf576040517f08c379a00000000000000000000000000000000000000000000000000000000081526004018080602001828103825260108152602001807f4e6f7420656e6f7567682066756e64730000000000000000000000000000000081525060200191505060405180910390fd5b6132e483600454612f8a90919063ffffffff16565b60048190555061333c83600760008773ffffffffffffffffffffffffffffffffffffffff1673ffffffffffffffffffffffffffffffffffffffff16815260200190815260200160002054612f8a90919063ffffffff16565b600760008673ffffffffffffffffffffffffffffffffffffffff1673ffffffffffffffffffffffffffffffffffffffff168152602001908152602001600020819055508373ffffffffffffffffffffffffffffffffffffffff168573ffffffffffffffffffffffffffffffffffffffff167fa78a9be3a7b862d26933ad85fb11d80ef66b8f972d7cbba06621d583943a4098858585604051808481526020018060200180602001838103835285818151815260200191508051906020019080838360005b8381101561341b578082015181840152602081019050613400565b50505050905090810190601f1680156134485780820380516001836020036101000a031916815260200191505b50838103825284818151815260200191508051906020019080838360005b83811015613481578082015181840152602081019050613466565b50505050905090810190601f1680156134ae5780820380516001836020036101000a031916815260200191505b509550505050505060405180910390a3600073ffffffffffffffffffffffffffffffffffffffff168473ffffffffffffffffffffffffffffffffffffffff167fddf252ad1be2c89b69c2b068fc378daa952ba7f163c4a11628f55a4df523b3ef856040518082815260200191505060405180910390a35050505050565b600080823b905060008111915050919050565b6000600354828161354b57fe5b06146135a2576040517f08c379a00000000000000000000000000000000000000000000000000000000081526004018080602001828103825260278152602001806136216027913960400191505060405180910390fd5b5056fe43616e6e6f7420617574686f72697a6520796f757273656c6620617320616e206f70657261746f72546f74616c20537570706c79206d757374206265206c657373207468616e204365696c696e6720537570706c792043616e6e6f74207265766f6b6520796f757273656c6620617320616e206f70657261746f72416d6f756e74206973206e6f742061206d756c7469706c65206f66206772616e75616c726974794552433737373a20746f6b656e20726563697069656e7420636f6e747261637420686173206e6f20696d706c656d656e74657220666f7220455243373737546f6b656e73526563697069656e744552433737373a207472616e7366657220746f20746865207a65726f20616464726573734552433737373a207472616e736665722066726f6d20746865207a65726f20616464726573734552433737373a20617070726f766520746f20746865207a65726f2061646472657373a265627a7a723058207be0bcd21d0dba77ac82cfbcd5918270aa785082379ec2f499a7e51a8822275164736f6c63430005090032",
  "source": "\n\npragma solidity ^0.5.9;\n\n\ninterface IERC777 {\n    function name() external view returns (string memory);\n  function symbol() external view returns (string memory);\n function granularity() external view returns (uint256);\n    function totalSupply() external view returns (uint256);\n    function balanceOf(address owner) external view returns (uint256);\n    function send(address recipient, uint256 amount, bytes calldata data) external;\n    function burn(uint256 amount, bytes calldata data) external;\n    function isOperatorFor(address operator, address tokenHolder) external view returns (bool);\n    function authorizeOperator(address operator) external;\n    function revokeOperator(address operator) external;\n    function defaultOperators() external view returns (address[] memory);\n    function operatorSend(\n        address sender,\n        address recipient,\n        uint256 amount,\n        bytes calldata data,\n        bytes calldata operatorData\n    ) external;\n    function operatorBurn(\n        address account,\n        uint256 amount,\n        bytes calldata data,\n        bytes calldata operatorData\n    ) external;\n\n    event Sent(\n        address indexed operator,\n        address indexed from,\n        address indexed to,\n        uint256 amount,\n        bytes data,\n        bytes operatorData\n    );\n\n    event Minted(address indexed operator, address indexed to, uint256 amount, bytes data, bytes operatorData);\n\n    event Burned(address indexed operator, address indexed from, uint256 amount, bytes data, bytes operatorData);\n\n    event AuthorizedOperator(address indexed operator, address indexed tokenHolder);\n\n    event RevokedOperator(address indexed operator, address indexed tokenHolder);\n}\n\npragma solidity ^0.5.9;\ninterface IERC777Recipient {\n    function tokensReceived(\n        address operator,\n        address from,\n        address to,\n        uint amount,\n        bytes calldata userData,\n        bytes calldata operatorData\n    ) external;\n}\n\npragma solidity ^0.5.9;\ninterface IERC777Sender {\n    function tokensToSend(\n        address operator,\n        address from,\n        address to,\n        uint amount,\n        bytes calldata userData,\n        bytes calldata operatorData\n    ) external;\n}\n\npragma solidity ^0.5.9;\ninterface IERC20 {\n    function totalSupply() external view returns (uint256);\n    function balanceOf(address account) external view returns (uint256);\n    function transfer(address recipient, uint256 amount) external returns (bool);\n    function allowance(address owner, address spender) external view returns (uint256);\n    function approve(address spender, uint256 amount) external returns (bool);\n    function transferFrom(address sender, address recipient, uint256 amount) external returns (bool);\n    event Transfer(address indexed from, address indexed to, uint256 value);\n    event Approval(address indexed owner, address indexed spender, uint256 value);\n}\n\npragma solidity ^0.5.0;\nlibrary SafeMath {\n    function add(uint256 a, uint256 b) internal pure returns (uint256) {\n        uint256 c = a + b;\n        require(c >= a, \"SafeMath: addition overflow\");\n\n        return c;\n    }\n    function sub(uint256 a, uint256 b) internal pure returns (uint256) {\n        require(b <= a, \"SafeMath: subtraction overflow\");\n        uint256 c = a - b;\n\n        return c;\n    }\n    function mul(uint256 a, uint256 b) internal pure returns (uint256) {\n        if (a == 0) {\n            return 0;\n        }\n\n        uint256 c = a * b;\n        require(c / a == b, \"SafeMath: multiplication overflow\");\n\n        return c;\n    }\n    function div(uint256 a, uint256 b) internal pure returns (uint256) {\n        // Solidity only automatically asserts when dividing by 0\n        require(b > 0, \"SafeMath: division by zero\");\n        uint256 c = a / b;\n        // assert(a == b * c + a % b); // There is no case in which this doesn't hold\n\n        return c;\n    }\n    function mod(uint256 a, uint256 b) internal pure returns (uint256) {\n        require(b != 0, \"SafeMath: modulo by zero\");\n        return a % b;\n    }\n}\n\npragma solidity ^0.5.9;\n\n/**\n * @dev Collection of functions related to the address type,\n */\nlibrary Address {\n    function isContract(address account) internal view returns (bool) {\n        // This method relies in extcodesize, which returns 0 for contracts in\n        // construction, since the code is only stored at the end of the\n        // constructor execution.\n\n        uint256 size;\n        // solhint-disable-next-line no-inline-assembly\n        assembly { size := extcodesize(account) }\n        return size > 0;\n    }\n\n    function toPayable(address account) internal pure returns (address payable) {\n        return address(uint160(account));\n    }\n}\n\npragma solidity ^0.5.9;\n\ninterface IERC1820Registry {\n    function setManager(address account, address newManager) external;\n    function getManager(address account) external view returns (address);\n    function setInterfaceImplementer(address account, bytes32 interfaceHash, address implementer) external;\n    function getInterfaceImplementer(address account, bytes32 interfaceHash) external view returns (address);\n    function interfaceHash(string calldata interfaceName) external pure returns (bytes32);\n    function updateERC165Cache(address account, bytes4 interfaceId) external;\n    function implementsERC165Interface(address account, bytes4 interfaceId) external view returns (bool);\n    function implementsERC165InterfaceNoCache(address account, bytes4 interfaceId) external view returns (bool);\n\n    event InterfaceImplementerSet(address indexed account, bytes32 indexed interfaceHash, address indexed implementer);\n\n    event ManagerChanged(address indexed account, address indexed newManager);\n}\ncontract Bitcoinv1 is IERC777, IERC20 {\n\n    using SafeMath for uint256;\n    using Address for address;\n\n    IERC1820Registry private _erc1820 = IERC1820Registry(0xC2c18315cDa0d04f4E7724215dD22Dc34E851565);\n\n    string public mName;\n    string public mSymbol;\n    uint256 internal mGranularity;\n    uint256 internal mTotalSupply;\n    address public _ownerAddress;\n    uint256 public ceilingSupply;\n    uint8 public constant decimals = 18; // 18 decimal places, the same as ETH\n\n    mapping(address => uint) internal mBalances;\n\n    address[] internal mDefaultOperators;\n    mapping(address => bool) internal mIsDefaultOperator;\n    mapping(address => mapping(address => bool)) internal mRevokedDefaultOperator;\n    mapping(address => mapping(address => bool)) internal mAuthorizedOperators;\n\n    // keccak256(\"ERC777TokensSender\")\n    bytes32 constant private TOKENS_SENDER_INTERFACE_HASH = 0x29ddb589b1fb5fc7cf394961c1adf5f8c6454761adf795e67fe149f658abe895;\n\n    // keccak256(\"ERC777TokensRecipient\")\n    bytes32 constant private TOKENS_RECIPIENT_INTERFACE_HASH = 0xb281fc8c12954d22544db45de3159a39272895b169a852b314f9cc762e44c53b;\n\n    // ERC20-allowances\n    mapping (address => mapping (address => uint256)) private _allowances;\n\n    /* -- constructor -- */\n    // @notice constructor to create Lazarus Token\n\n    constructor(       \n        address[] memory _defaultOperators\n) public {\n        mName = \"BITCOIN1\";\n        mSymbol = \"EBTC1\";\n        mTotalSupply =  2000000000 ;\n        ceilingSupply =  20000000000;\n        _ownerAddress = msg.sender;\n        mBalances[msg.sender] = mTotalSupply;\n        mGranularity = 1;\n\n        mDefaultOperators= _defaultOperators;\n        for (uint256 i = 0 ; i < mDefaultOperators.length; i++){\n            mIsDefaultOperator[mDefaultOperators[i]] = true;\n        }\n\n        // register interfaces\n        _erc1820.setInterfaceImplementer(address(this), keccak256(\"ERC777Token\"), address(this));\n        _erc1820.setInterfaceImplementer(address(this), keccak256(\"ERC20Token\"), address(this));\n    }\n\n    // @onlyOwner modifier that can be used in define\n    //function which only owner of the smartcontract can call\n    modifier onlyOwner{\n        require(msg.sender == _ownerAddress, \"Sender not authorized\");\n        // Do not forget the \"_;\"! It will\n        // be replaced by the actual function\n        // body when the modifier is used.\n        _;\n    }\n    function name() public view returns (string memory) {return mName;}\n\n    /**\n     * @dev Returns the symbol of the token, usually a shorter version of the\n     * name.\n     */\n    function symbol() public view returns (string memory) {return mSymbol;}\n\n    /**\n     * @dev Returns the smallest part of the token that is not divisible. This\n     * means all token operations (creation, movement and destruction) must have\n     * amounts that are a multiple of this number.\n     *\n     * For most token contracts, this value will equal 1.\n     */\n    function granularity() public view returns (uint256) {return mGranularity;}\n\n    /**\n     * @dev Returns the amount of tokens in existence.\n     */\n    function totalSupply() public view returns (uint256) {return mTotalSupply;}\n\n    //@notice Return the account balance of some account\n    //@param _tokenHolder Address for which the balance is returned\n    //@return the balance of '_tokenAddress'\n    function balanceOf(address _tokenHolder) public view returns (uint256) {return mBalances[_tokenHolder];}\n\n    //@notice Return the list of default operators\n    //@return the list of all the defaultOperators operators\n    function defaultOperators() public view returns (address[] memory) {return mDefaultOperators; }\n\n    /// @notice Send `_amount` of tokens to address `_to` passing `_data` to the recipient\n    /// @param _to The address of the recipient\n    /// @param _amount The number of tokens to be sent\n    /// @param _data the data with send function\n    function send(address _to, uint256 _amount, bytes calldata _data) external {\n        doSend(msg.sender, msg.sender, _to, _amount, _data, \"\", true);\n    }\n    /**\n    * @dev See `IERC20.transfer`.\n    *\n    * Unlike `send`, `recipient` is _not_ required to implement the `tokensReceived`\n    * interface if it is a contract.\n    *\n    * Also emits a `Sent` event.\n    */\n    function transfer(address recipient, uint256 amount) external returns(bool){\n        require(recipient != address(0), \"ERC777: transfer to the zero address\");\n\n        address from = msg.sender;\n        callSender(from, from, recipient, amount, \"\", \"\");\n\n        move(from, from, recipient, amount, \"\", \"\");\n\n        callRecipient(from, from, recipient, amount, \"\", \"\", false);\n\n    }\n\n    /// @notice Authorize a third party `_operator` to manage (send) `msg.sender`'s tokens.\n    /// @param _operator The operator that wants to be Authorized\n    function authorizeOperator(address _operator) public {\n        require(_operator != msg.sender, \"Cannot authorize yourself as an operator\");\n        if (mIsDefaultOperator[_operator]) {\n            mRevokedDefaultOperator[_operator][msg.sender] = false;\n        } else {\n            mAuthorizedOperators[_operator][msg.sender] = true;\n        }\n        emit AuthorizedOperator(_operator, msg.sender);\n    }\n\n    /// @notice Revoke a third party `_operator`'s rights to manage (send) `msg.sender`'s tokens.\n    /// @param _operator The operator that wants to be Revoked\n    function revokeOperator(address _operator) public {\n        require(_operator != msg.sender, \"Cannot revoke yourself as an operator\");\n        if (mIsDefaultOperator[_operator]) {\n            mRevokedDefaultOperator[_operator][msg.sender] = true;\n        } else {\n            mAuthorizedOperators[_operator][msg.sender] = false;\n        }\n        emit RevokedOperator(_operator, msg.sender);\n    }\n\n    /// @notice Check whether the `_operator` address is allowed to manage the tokens held by `_tokenHolder` address.\n    /// @param _operator address to check if it has the right to manage the tokens\n    /// @param _tokenHolder address which holds the tokens to be managed\n    /// @return `true` if `_operator` is authorized for `_tokenHolder`\n    function isOperatorFor(address _operator, address _tokenHolder) public view returns (bool) {\n        return (_operator == _tokenHolder // solium-disable-line operator-whitespace\n            || mAuthorizedOperators[_operator][_tokenHolder]\n            || (mIsDefaultOperator[_operator] && !mRevokedDefaultOperator[_operator][_tokenHolder]));\n    }\n\n    /// @notice Send `_amount` of tokens on behalf of the address `from` to the address `to`.\n    /// @param _from The address holding the tokens being sent\n    /// @param _to The address of the recipient\n    /// @param _amount The number of tokens to be sent\n    /// @param _data Data generated by the user to be sent to the recipient\n    /// @param _operatorData Data generated by the operator to be sent to the recipient\n    function operatorSend(address _from, address _to, uint256 _amount, bytes calldata _data, bytes calldata _operatorData) external {\n        require(isOperatorFor(msg.sender, _from), \"Not an operator\");\n        doSend(msg.sender, _from, _to, _amount, _data, _operatorData, true);\n    }\n\n    /**\n     * @dev See `IERC20.allowance`.\n     *\n     * Note that operator and allowance concepts are orthogonal: operators may\n     * not have allowance, and accounts with allowance may not be operators\n     * themselves.\n     */\n    function allowance(address holder, address spender) public view returns (uint256) {\n        return _allowances[holder][spender];\n    }\n\n    /**\n     * @dev See `IERC20.approve`.\n     *\n     * Note that accounts cannot have allowance issued by their operators.\n     */\n    function approve(address spender, uint256 value) external returns (bool) {\n        address holder = msg.sender;\n        approve(holder, spender, value);\n        return true;\n    }\n\n    /**\n    * @dev See `IERC20.transferFrom`.\n    *\n    * Note that operator and allowance concepts are orthogonal: operators cannot\n    * call `transferFrom` (unless they have allowance), and accounts with\n    * allowance cannot call `operatorSend` (unless they are operators).\n    *\n    * Emits `Sent` and `Transfer` events.\n    */\n    function transferFrom(address holder, address recipient, uint256 amount) external returns (bool) {\n        require(recipient != address(0), \"ERC777: transfer to the zero address\");\n        require(holder != address(0), \"ERC777: transfer from the zero address\");\n\n        address spender = msg.sender;\n\n        callSender(spender, holder, recipient, amount, \"\", \"\");\n\n        move(spender, holder, recipient, amount, \"\", \"\");\n        approve(holder, spender, _allowances[holder][spender].sub(amount));\n\n        callRecipient(spender, holder, recipient, amount, \"\", \"\", false);\n\n        return true;\n    }\n\n    function burn(uint256 _amount, bytes calldata _data) external {\n        doBurn(msg.sender, msg.sender, _amount, _data, \"\");\n    }\n\n    function operatorBurn(address _tokenHolder, uint256 _amount, bytes calldata _data, bytes calldata _operatorData) external {\n        require(isOperatorFor(msg.sender, _tokenHolder), \"Not an operator\");\n        doBurn(msg.sender, _tokenHolder, _amount, _data, _operatorData);\n    }\n\n    /* -- Helper Functions -- */\n    //\n    /// @notice Internal function that ensures `_amount` is multiple of the granularity\n    /// @param _amount The quantity that want's to be checked\n    function requireMultiple(uint256 _amount) internal view {\n        require(_amount % mGranularity == 0, \"Amount is not a multiple of granualrity\");\n    }\n\n    /// @notice Helper function actually performing the sending of tokens.\n    /// @param _operator The address performing the send\n    /// @param _from The address holding the tokens being sent\n    /// @param _to The address of the recipient\n    /// @param _amount The number of tokens to be sent\n    /// @param _data Data generated by the user to be passed to the recipient\n    /// @param _operatorData Data generated by the operator to be passed to the recipient\n    /// @param _preventLocking `true` if you want this function to throw when tokens are sent to a contract not\n    ///  implementing `ERC777tokensRecipient`.\n    ///  ERC777 native Send functions MUST set this parameter to `true`, and backwards compatible ERC20 transfer\n    ///  functions SHOULD set this parameter to `false`.\n    function doSend(address _operator, address _from, address _to, uint256 _amount, bytes memory _data, bytes memory _operatorData, bool _preventLocking) internal {\n        requireMultiple(_amount);\n        require(_from != address(0), \"ERC777: send from 0x0\");\n        require(_to != address(0), \"ERC777: send to 0x0\");\n\n        callSender(_operator, _from, _to, _amount, _data, _operatorData);\n\n        move(_operator, _from, _to, _amount, _data, _operatorData);\n\n        callRecipient(_operator, _from, _to, _amount, _data, _operatorData, _preventLocking);\n    }\n\n    /// @notice Helper function actually performing the burning of tokens.\n    /// @param _operator The address performing the burn\n    /// @param _tokenHolder The address holding the tokens being burn\n    /// @param _amount The number of tokens to be burnt\n    /// @param _data Data generated by the token holder\n    /// @param _operatorData Data generated by the operator\n    function doBurn(address _operator, address _tokenHolder, uint256 _amount, bytes memory _data, bytes memory _operatorData) internal {\n        require(_tokenHolder != address(0), \"ERC777: burn from 0x0\");\n        callSender(_operator, _tokenHolder, address(0), _amount, _data, _operatorData);\n\n        requireMultiple(_amount);\n        require(balanceOf(_tokenHolder) >= _amount, \"Not enough funds\");\n\n        mTotalSupply = mTotalSupply.sub(_amount);\n        mBalances[_tokenHolder] = mBalances[_tokenHolder].sub(_amount);\n\n        emit Burned(_operator, _tokenHolder, _amount, _data, _operatorData);\n        emit Transfer(_tokenHolder, address(0), _amount);\n    }\n\n    /// @notice Helper function that checks for ERC777TokensRecipient on the recipient and calls it.\n    ///  May throw according to `_preventLocking`\n    /// @param _operator The address performing the send or mint\n    /// @param _from The address holding the tokens being sent\n    /// @param _to The address of the recipient\n    /// @param _amount The number of tokens to be sent\n    /// @param _data Data generated by the user to be passed to the recipient\n    /// @param _operatorData Data generated by the operator to be passed to the recipient\n    /// @param _preventLocking `true` if you want this function to throw when tokens are sent to a contract not\n    ///  implementing `ERC777TokensRecipient`.\n    ///  ERC777 native Send functions MUST set this parameter to `true`, and backwards compatible ERC20 transfer\n    ///  functions SHOULD set this parameter to `false`.\n    function callRecipient(address _operator, address _from, address _to, uint256 _amount, bytes memory _data, bytes memory _operatorData, bool _preventLocking) internal {\n        address recipientImplementation = _erc1820.getInterfaceImplementer(_to, TOKENS_RECIPIENT_INTERFACE_HASH);\n        if (recipientImplementation != address(0)) {\n            IERC777Recipient(recipientImplementation).tokensReceived(_operator, _from, _to, _amount, _data, _operatorData);\n        } else if (_preventLocking) {\n            require(!_to.isContract(), \"ERC777: token recipient contract has no implementer for ERC777TokensRecipient\");\n        }\n    }\n\n    function move(address operator, address from, address to, uint256 amount, bytes memory userData, bytes memory operatorData) private {\n        require(mBalances[from] >= amount, \"Not enough funds\");\n        mBalances[from] = mBalances[from].sub(amount);\n        mBalances[to] = mBalances[to].add(amount);\n\n        emit Sent(operator, from, to, amount, userData, operatorData);\n        emit Transfer(from, to, amount);\n    }\n\n    /// @notice Helper function that checks for IERC777Sender on the sender and calls it.\n    ///  May throw according to `_preventLocking`\n    /// @param _from The address holding the tokens being sent\n    /// @param _to The address of the recipient\n    /// @param _amount The amount of tokens to be sent\n    /// @param _userData Data generated by the user to be passed to the recipient\n    /// @param _operatorData Data generated by the operator to be passed to the recipient\n    ///  implementing `IERC777Sender`.\n    ///  ERC777 native Send functions MUST set this parameter to `true`, and backwards compatible ERC20 transfer\n    ///  functions SHOULD set this parameter to `false`.\n    function callSender(address _operator, address _from, address _to, uint256 _amount, bytes memory _userData, bytes memory _operatorData ) internal {\n        address senderImplementation = _erc1820.getInterfaceImplementer(_from, TOKENS_SENDER_INTERFACE_HASH);\n        if (senderImplementation != address(0)) {\n            IERC777Sender(senderImplementation).tokensToSend(_operator, _from, _to, _amount, _userData, _operatorData);\n        }\n    }\n\n    function approve(address holder, address spender, uint256 value) private {\n        // TODO: restore this require statement if this function becomes internal, or is called at a new callsite. It is\n        // currently unnecessary.\n        //require(holder != address(0), \"ERC777: approve from the zero address\");\n        require(spender != address(0), \"ERC777: approve to the zero address\");\n\n        _allowances[holder][spender] = value;\n        emit Approval(holder, spender, value);\n    }\n\n    /**\n    * Transfer ownership of contract to another account\n    * @param _newOwner the address of new owner of the smartcontract\n    */\n    function transferOwnership(address _newOwner) public onlyOwner returns(bool success){\n        _ownerAddress = _newOwner;\n        return true;\n    }\n\n    /**\n     * @dev Creates `amount` tokens and assigns them to `account`, increasing\n     * the total supply.\n     *\n     * If a send hook is registered for `raccount`, the corresponding function\n     * will be called with `operator`, `data` and `operatorData`.\n     *\n     * See `IERC777Sender` and `IERC777Recipient`.\n     *\n     * Emits `Sent` and `Transfer` events.\n     *\n     * Requirements\n     *\n     * - `account` cannot be the zero address.\n     * - if `account` is a contract, it must implement the `tokensReceived`\n     * interface.\n     */\n    function mintToken(address operator, address account, uint256 amount, bytes calldata userData, bytes calldata operatorData) external onlyOwner {\n        require (mTotalSupply <= ceilingSupply, \"Total Supply must be less than Ceiling Supply \");\n        require(account != address(0), \"ERC777: mint to the zero address\");\n\n        // Update state variables\n        mTotalSupply = mTotalSupply.add(amount);\n        mBalances[account] = mBalances[account].add(amount);\n\n        callRecipient(operator, address(0), account, amount, userData, operatorData, true);\n\n        emit Minted(operator, account, amount, userData, operatorData);\n        emit Transfer(address(0), account, amount);\n    }\n\n    /**\n     * Total mintableToken pending in the system\n    */\n    function mintableToken() external view returns(uint256 remaining){\n        return ceilingSupply.sub(mTotalSupply);\n    }\n\n}",
  "sourcePath": "/home/aman/Desktop/gb/truffleTest/contracts/erc777.sol",
  "compiler": {
    "name": "solc",
    "version": "0.5.9+commit.e560f70d.Emscripten.clang"
  },
  "schemaVersion": "3.0.20",
  "updatedAt": "2020-01-11T09:29:19.234Z",
  "networkType": "ethereum",
  "devdoc": {
    "methods": {
      "allowance(address,address)": {
        "details": "See `IERC20.allowance`.     * Note that operator and allowance concepts are orthogonal: operators may not have allowance, and accounts with allowance may not be operators themselves."
      },
      "approve(address,uint256)": {
        "details": "See `IERC20.approve`.     * Note that accounts cannot have allowance issued by their operators."
      },
      "authorizeOperator(address)": {
        "params": {
          "_operator": "The operator that wants to be Authorized"
        }
      },
      "granularity()": {
        "details": "Returns the smallest part of the token that is not divisible. This means all token operations (creation, movement and destruction) must have amounts that are a multiple of this number.     * For most token contracts, this value will equal 1."
      },
      "isOperatorFor(address,address)": {
        "params": {
          "_operator": "address to check if it has the right to manage the tokens",
          "_tokenHolder": "address which holds the tokens to be managed"
        },
        "return": "`true` if `_operator` is authorized for `_tokenHolder`"
      },
      "mintToken(address,address,uint256,bytes,bytes)": {
        "details": "Creates `amount` tokens and assigns them to `account`, increasing the total supply.     * If a send hook is registered for `raccount`, the corresponding function will be called with `operator`, `data` and `operatorData`.     * See `IERC777Sender` and `IERC777Recipient`.     * Emits `Sent` and `Transfer` events.     * Requirements     * - `account` cannot be the zero address. - if `account` is a contract, it must implement the `tokensReceived` interface."
      },
      "operatorSend(address,address,uint256,bytes,bytes)": {
        "params": {
          "_amount": "The number of tokens to be sent",
          "_data": "Data generated by the user to be sent to the recipient",
          "_from": "The address holding the tokens being sent",
          "_operatorData": "Data generated by the operator to be sent to the recipient",
          "_to": "The address of the recipient"
        }
      },
      "revokeOperator(address)": {
        "params": {
          "_operator": "The operator that wants to be Revoked"
        }
      },
      "send(address,uint256,bytes)": {
        "params": {
          "_amount": "The number of tokens to be sent",
          "_data": "the data with send function",
          "_to": "The address of the recipient"
        }
      },
      "symbol()": {
        "details": "Returns the symbol of the token, usually a shorter version of the name."
      },
      "totalSupply()": {
        "details": "Returns the amount of tokens in existence."
      },
      "transfer(address,uint256)": {
        "details": "See `IERC20.transfer`.    * Unlike `send`, `recipient` is _not_ required to implement the `tokensReceived` interface if it is a contract.    * Also emits a `Sent` event."
      },
      "transferFrom(address,address,uint256)": {
        "details": "See `IERC20.transferFrom`.    * Note that operator and allowance concepts are orthogonal: operators cannot call `transferFrom` (unless they have allowance), and accounts with allowance cannot call `operatorSend` (unless they are operators).    * Emits `Sent` and `Transfer` events."
      },
      "transferOwnership(address)": {
        "params": {
          "_newOwner": "the address of new owner of the smartcontract"
        }
      }
    }
  },
  "userdoc": {
    "methods": {
      "authorizeOperator(address)": {
        "notice": "Authorize a third party `_operator` to manage (send) `msg.sender`'s tokens."
      },
      "isOperatorFor(address,address)": {
        "notice": "Check whether the `_operator` address is allowed to manage the tokens held by `_tokenHolder` address."
      },
      "mintableToken()": {
        "notice": "Total mintableToken pending in the system"
      },
      "operatorSend(address,address,uint256,bytes,bytes)": {
        "notice": "Send `_amount` of tokens on behalf of the address `from` to the address `to`."
      },
      "revokeOperator(address)": {
        "notice": "Revoke a third party `_operator`'s rights to manage (send) `msg.sender`'s tokens."
      },
      "send(address,uint256,bytes)": {
        "notice": "Send `_amount` of tokens to address `_to` passing `_data` to the recipient"
      },
      "transferOwnership(address)": {
        "notice": "Transfer ownership of contract to another account"
      }
    }
  }
}